{
  "contractName": "TaskLogger",
  "abi": [
    {
      "inputs": [],
      "name": "taskCount",
      "outputs": [
        {
          "internalType": "uint256",
          "name": "",
          "type": "uint256"
        }
      ],
      "stateMutability": "view",
      "type": "function",
      "constant": true
    },
    {
      "inputs": [
        {
          "internalType": "uint256",
          "name": "",
          "type": "uint256"
        }
      ],
      "name": "tasks",
      "outputs": [
        {
          "internalType": "string",
          "name": "inputHash",
          "type": "string"
        },
        {
          "internalType": "string",
          "name": "outputHash",
          "type": "string"
        },
        {
          "internalType": "string",
          "name": "status",
          "type": "string"
        }
      ],
      "stateMutability": "view",
      "type": "function",
      "constant": true
    },
    {
      "inputs": [
        {
          "internalType": "string",
          "name": "inputHash",
          "type": "string"
        },
        {
          "internalType": "string",
          "name": "outputHash",
          "type": "string"
        },
        {
          "internalType": "string",
          "name": "status",
          "type": "string"
        }
      ],
      "name": "logTask",
      "outputs": [],
      "stateMutability": "nonpayable",
      "type": "function"
    }
  ],
  "bytecode": "0x608060405234801561001057600080fd5b506107de806100206000396000f3fe608060405234801561001057600080fd5b50600436106100415760003560e01c806350ee84b0146100465780638d97767214610062578063b6cb58a514610094575b600080fd5b610060600480360381019061005b9190610440565b6100b2565b005b61007c600480360381019061007791906104d7565b610158565b60405161008b93929190610548565b60405180910390f35b61009c61031a565b6040516100a99190610594565b60405180910390f35b604051806060016040528084815260200183815260200182815250600080600154815260200190815260200160002060008201518160000190805190602001906100fd929190610320565b50602082015181600101908051906020019061011a929190610320565b506040820151816002019080519060200190610137929190610320565b509050506001600081548092919061014e906106aa565b9190505550505050565b600060205280600052604060002060009150905080600001805461017b90610678565b80601f01602080910402602001604051908101604052809291908181526020018280546101a790610678565b80156101f45780601f106101c9576101008083540402835291602001916101f4565b820191906000526020600020905b8154815290600101906020018083116101d757829003601f168201915b50505050509080600101805461020990610678565b80601f016020809104026020016040519081016040528092919081815260200182805461023590610678565b80156102825780601f1061025757610100808354040283529160200191610282565b820191906000526020600020905b81548152906001019060200180831161026557829003601f168201915b50505050509080600201805461029790610678565b80601f01602080910402602001604051908101604052809291908181526020018280546102c390610678565b80156103105780601f106102e557610100808354040283529160200191610310565b820191906000526020600020905b8154815290600101906020018083116102f357829003601f168201915b5050505050905083565b60015481565b82805461032c90610678565b90600052602060002090601f01602090048101928261034e5760008555610395565b82601f1061036757805160ff1916838001178555610395565b82800160010185558215610395579182015b82811115610394578251825591602001919060010190610379565b5b5090506103a291906103a6565b5090565b5b808211156103bf5760008160009055506001016103a7565b5090565b60006103d66103d1846105e0565b6105af565b9050828152602081018484840111156103ee57600080fd5b6103f9848285610636565b509392505050565b600082601f83011261041257600080fd5b81356104228482602086016103c3565b91505092915050565b60008135905061043a81610791565b92915050565b60008060006060848603121561045557600080fd5b600084013567ffffffffffffffff81111561046f57600080fd5b61047b86828701610401565b935050602084013567ffffffffffffffff81111561049857600080fd5b6104a486828701610401565b925050604084013567ffffffffffffffff8111156104c157600080fd5b6104cd86828701610401565b9150509250925092565b6000602082840312156104e957600080fd5b60006104f78482850161042b565b91505092915050565b600061050b82610610565b610515818561061b565b9350610525818560208601610645565b61052e81610780565b840191505092915050565b6105428161062c565b82525050565b600060608201905081810360008301526105628186610500565b905081810360208301526105768185610500565b9050818103604083015261058a8184610500565b9050949350505050565b60006020820190506105a96000830184610539565b92915050565b6000604051905081810181811067ffffffffffffffff821117156105d6576105d5610751565b5b8060405250919050565b600067ffffffffffffffff8211156105fb576105fa610751565b5b601f19601f8301169050602081019050919050565b600081519050919050565b600082825260208201905092915050565b6000819050919050565b82818337600083830152505050565b60005b83811015610663578082015181840152602081019050610648565b83811115610672576000848401525b50505050565b6000600282049050600182168061069057607f821691505b602082108114156106a4576106a3610722565b5b50919050565b60006106b58261062c565b91507fffffffffffffffffffffffffffffffffffffffffffffffffffffffffffffffff8214156106e8576106e76106f3565b5b600182019050919050565b7f4e487b7100000000000000000000000000000000000000000000000000000000600052601160045260246000fd5b7f4e487b7100000000000000000000000000000000000000000000000000000000600052602260045260246000fd5b7f4e487b7100000000000000000000000000000000000000000000000000000000600052604160045260246000fd5b6000601f19601f8301169050919050565b61079a8161062c565b81146107a557600080fd5b5056fea26469706673582212200582623a1c28819e2ed5b933ee66519b6b2fe347c3a6b609d333476738314d7864736f6c63430008000033",
  "immutableReferences": {},
  "source": "// SPDX-License-Identifier: MIT\npragma solidity ^0.8.0;\n\ncontract TaskLogger {\n    struct Task {\n        string inputHash;\n        string outputHash;\n        string status;\n    }\n\n    mapping(uint => Task) public tasks;\n    uint public taskCount;\n\n    function logTask(string memory inputHash, string memory outputHash, string memory status) public {\n        tasks[taskCount] = Task(inputHash, outputHash, status);\n        taskCount++;\n    }\n}",
  "sourcePath": "/Users/deadshot/Desktop/Code/decentralized-compute/truffle-project/contracts/TaskLogger.sol",
  "compiler": {
    "name": "solc",
    "version": "0.8.0+commit.c7dfd78e.Emscripten.clang"
  },
  "schemaVersion": "3.4.16",
  "updatedAt": "2024-11-24T22:13:29.761Z",
  "networkType": "ethereum",
  "devdoc": {
    "kind": "dev",
    "methods": {},
    "version": 1
  },
  "userdoc": {
    "kind": "user",
    "methods": {},
    "version": 1
  }
}