{
  "contractName": "TaskLogger",
  "abi": [
    {
      "anonymous": false,
      "inputs": [
        {
          "indexed": true,
          "internalType": "uint256",
          "name": "taskId",
          "type": "uint256"
        },
        {
          "indexed": false,
          "internalType": "string",
          "name": "inputHash",
          "type": "string"
        },
        {
          "indexed": false,
          "internalType": "string",
          "name": "outputHash",
          "type": "string"
        },
        {
          "indexed": false,
          "internalType": "string",
          "name": "status",
          "type": "string"
        }
      ],
      "name": "TaskLogged",
      "type": "event"
    },
    {
      "inputs": [],
      "name": "taskCount",
      "outputs": [
        {
          "internalType": "uint256",
          "name": "",
          "type": "uint256"
        }
      ],
      "stateMutability": "view",
      "type": "function",
      "constant": true
    },
    {
      "inputs": [
        {
          "internalType": "uint256",
          "name": "",
          "type": "uint256"
        }
      ],
      "name": "tasks",
      "outputs": [
        {
          "internalType": "string",
          "name": "inputHash",
          "type": "string"
        },
        {
          "internalType": "string",
          "name": "outputHash",
          "type": "string"
        },
        {
          "internalType": "string",
          "name": "status",
          "type": "string"
        }
      ],
      "stateMutability": "view",
      "type": "function",
      "constant": true
    },
    {
      "inputs": [
        {
          "internalType": "string",
          "name": "inputHash",
          "type": "string"
        },
        {
          "internalType": "string",
          "name": "outputHash",
          "type": "string"
        },
        {
          "internalType": "string",
          "name": "status",
          "type": "string"
        }
      ],
      "name": "logTask",
      "outputs": [],
      "stateMutability": "nonpayable",
      "type": "function"
    }
  ],
  "bytecode": "0x608060405234801561001057600080fd5b5061081c806100206000396000f3fe608060405234801561001057600080fd5b50600436106100415760003560e01c806350ee84b0146100465780638d97767214610062578063b6cb58a514610094575b600080fd5b610060600480360381019061005b919061047e565b6100b2565b005b61007c60048036038101906100779190610515565b610196565b60405161008b93929190610586565b60405180910390f35b61009c610358565b6040516100a991906105d2565b60405180910390f35b604051806060016040528084815260200183815260200182815250600080600154815260200190815260200160002060008201518160000190805190602001906100fd92919061035e565b50602082015181600101908051906020019061011a92919061035e565b50604082015181600201908051906020019061013792919061035e565b509050506001547f540cb1313d4e15fb64bff202000cc7a4b13bbf80f9d21f7c23364ec73ce1caec84848460405161017193929190610586565b60405180910390a26001600081548092919061018c906106e8565b9190505550505050565b60006020528060005260406000206000915090508060000180546101b9906106b6565b80601f01602080910402602001604051908101604052809291908181526020018280546101e5906106b6565b80156102325780601f1061020757610100808354040283529160200191610232565b820191906000526020600020905b81548152906001019060200180831161021557829003601f168201915b505050505090806001018054610247906106b6565b80601f0160208091040260200160405190810160405280929190818152602001828054610273906106b6565b80156102c05780601f10610295576101008083540402835291602001916102c0565b820191906000526020600020905b8154815290600101906020018083116102a357829003601f168201915b5050505050908060020180546102d5906106b6565b80601f0160208091040260200160405190810160405280929190818152602001828054610301906106b6565b801561034e5780601f106103235761010080835404028352916020019161034e565b820191906000526020600020905b81548152906001019060200180831161033157829003601f168201915b5050505050905083565b60015481565b82805461036a906106b6565b90600052602060002090601f01602090048101928261038c57600085556103d3565b82601f106103a557805160ff19168380011785556103d3565b828001600101855582156103d3579182015b828111156103d25782518255916020019190600101906103b7565b5b5090506103e091906103e4565b5090565b5b808211156103fd5760008160009055506001016103e5565b5090565b600061041461040f8461061e565b6105ed565b90508281526020810184848401111561042c57600080fd5b610437848285610674565b509392505050565b600082601f83011261045057600080fd5b8135610460848260208601610401565b91505092915050565b600081359050610478816107cf565b92915050565b60008060006060848603121561049357600080fd5b600084013567ffffffffffffffff8111156104ad57600080fd5b6104b98682870161043f565b935050602084013567ffffffffffffffff8111156104d657600080fd5b6104e28682870161043f565b925050604084013567ffffffffffffffff8111156104ff57600080fd5b61050b8682870161043f565b9150509250925092565b60006020828403121561052757600080fd5b600061053584828501610469565b91505092915050565b60006105498261064e565b6105538185610659565b9350610563818560208601610683565b61056c816107be565b840191505092915050565b6105808161066a565b82525050565b600060608201905081810360008301526105a0818661053e565b905081810360208301526105b4818561053e565b905081810360408301526105c8818461053e565b9050949350505050565b60006020820190506105e76000830184610577565b92915050565b6000604051905081810181811067ffffffffffffffff821117156106145761061361078f565b5b8060405250919050565b600067ffffffffffffffff8211156106395761063861078f565b5b601f19601f8301169050602081019050919050565b600081519050919050565b600082825260208201905092915050565b6000819050919050565b82818337600083830152505050565b60005b838110156106a1578082015181840152602081019050610686565b838111156106b0576000848401525b50505050565b600060028204905060018216806106ce57607f821691505b602082108114156106e2576106e1610760565b5b50919050565b60006106f38261066a565b91507fffffffffffffffffffffffffffffffffffffffffffffffffffffffffffffffff82141561072657610725610731565b5b600182019050919050565b7f4e487b7100000000000000000000000000000000000000000000000000000000600052601160045260246000fd5b7f4e487b7100000000000000000000000000000000000000000000000000000000600052602260045260246000fd5b7f4e487b7100000000000000000000000000000000000000000000000000000000600052604160045260246000fd5b6000601f19601f8301169050919050565b6107d88161066a565b81146107e357600080fd5b5056fea26469706673582212204fd7f19b03d636f62c890921ecd3c85c7a796c1a0e79f11225889b9489f5bdf864736f6c63430008000033",
  "immutableReferences": {},
  "source": "// SPDX-License-Identifier: MIT\npragma solidity ^0.8.0;\n\ncontract TaskLogger {\n    struct Task {\n        string inputHash;\n        string outputHash;\n        string status;\n    }\n\n    // Mapping to store tasks\n    mapping(uint => Task) public tasks;\n\n    // Counter to track the number of tasks\n    uint public taskCount;\n\n    // Event to log task details\n    event TaskLogged(uint indexed taskId, string inputHash, string outputHash, string status);\n\n    // Function to log a new task\n    function logTask(string memory inputHash, string memory outputHash, string memory status) public {\n        // Store the task in the mapping\n        tasks[taskCount] = Task(inputHash, outputHash, status);\n\n        // Emit the TaskLogged event\n        emit TaskLogged(taskCount, inputHash, outputHash, status);\n\n        // Increment the task counter\n        taskCount++;\n    }\n}",
  "sourcePath": "/Users/deadshot/Desktop/Code/decentralized-compute/truffle-project/contracts/TaskLogger.sol",
  "compiler": {
    "name": "solc",
    "version": "0.8.0+commit.c7dfd78e.Emscripten.clang"
  },
  "schemaVersion": "3.4.16",
  "updatedAt": "2024-11-24T23:44:39.843Z",
  "networkType": "ethereum",
  "devdoc": {
    "kind": "dev",
    "methods": {},
    "version": 1
  },
  "userdoc": {
    "kind": "user",
    "methods": {},
    "version": 1
  }
}